{
   "_format": "hh-sol-artifact-1",
   "contractName": "Faucet",
   "sourceName": "contracts/Faucet.sol",
   "abi": [
      {
         "inputs": [
            {
               "internalType": "address",
               "name": "_token",
               "type": "address"
            },
            {
               "internalType": "uint256",
               "name": "_claimAmount",
               "type": "uint256"
            },
            {
               "internalType": "uint256",
               "name": "_claimInterval",
               "type": "uint256"
            }
         ],
         "stateMutability": "nonpayable",
         "type": "constructor"
      },
      {
         "inputs": [
            {
               "internalType": "address",
               "name": "owner",
               "type": "address"
            }
         ],
         "name": "OwnableInvalidOwner",
         "type": "error"
      },
      {
         "inputs": [
            {
               "internalType": "address",
               "name": "account",
               "type": "address"
            }
         ],
         "name": "OwnableUnauthorizedAccount",
         "type": "error"
      },
      {
         "anonymous": false,
         "inputs": [
            {
               "indexed": true,
               "internalType": "address",
               "name": "previousOwner",
               "type": "address"
            },
            {
               "indexed": true,
               "internalType": "address",
               "name": "newOwner",
               "type": "address"
            }
         ],
         "name": "OwnershipTransferred",
         "type": "event"
      },
      {
         "anonymous": false,
         "inputs": [
            {
               "indexed": true,
               "internalType": "address",
               "name": "claimer",
               "type": "address"
            },
            {
               "indexed": false,
               "internalType": "uint256",
               "name": "amount",
               "type": "uint256"
            }
         ],
         "name": "TokensClaimed",
         "type": "event"
      },
      {
         "inputs": [],
         "name": "claimAmount",
         "outputs": [
            {
               "internalType": "uint256",
               "name": "",
               "type": "uint256"
            }
         ],
         "stateMutability": "view",
         "type": "function"
      },
      {
         "inputs": [],
         "name": "claimInterval",
         "outputs": [
            {
               "internalType": "uint256",
               "name": "",
               "type": "uint256"
            }
         ],
         "stateMutability": "view",
         "type": "function"
      },
      {
         "inputs": [],
         "name": "claimTokens",
         "outputs": [],
         "stateMutability": "nonpayable",
         "type": "function"
      },
      {
         "inputs": [
            {
               "internalType": "uint256",
               "name": "_amount",
               "type": "uint256"
            }
         ],
         "name": "depositTokens",
         "outputs": [],
         "stateMutability": "nonpayable",
         "type": "function"
      },
      {
         "inputs": [
            {
               "internalType": "address",
               "name": "",
               "type": "address"
            }
         ],
         "name": "lastClaimed",
         "outputs": [
            {
               "internalType": "uint256",
               "name": "",
               "type": "uint256"
            }
         ],
         "stateMutability": "view",
         "type": "function"
      },
      {
         "inputs": [],
         "name": "owner",
         "outputs": [
            {
               "internalType": "address",
               "name": "",
               "type": "address"
            }
         ],
         "stateMutability": "view",
         "type": "function"
      },
      {
         "inputs": [],
         "name": "renounceOwnership",
         "outputs": [],
         "stateMutability": "nonpayable",
         "type": "function"
      },
      {
         "inputs": [
            {
               "internalType": "uint256",
               "name": "_claimAmount",
               "type": "uint256"
            }
         ],
         "name": "setClaimAmount",
         "outputs": [],
         "stateMutability": "nonpayable",
         "type": "function"
      },
      {
         "inputs": [
            {
               "internalType": "uint256",
               "name": "_claimInterval",
               "type": "uint256"
            }
         ],
         "name": "setClaimInterval",
         "outputs": [],
         "stateMutability": "nonpayable",
         "type": "function"
      },
      {
         "inputs": [],
         "name": "token",
         "outputs": [
            {
               "internalType": "contract IERC20",
               "name": "",
               "type": "address"
            }
         ],
         "stateMutability": "view",
         "type": "function"
      },
      {
         "inputs": [
            {
               "internalType": "address",
               "name": "newOwner",
               "type": "address"
            }
         ],
         "name": "transferOwnership",
         "outputs": [],
         "stateMutability": "nonpayable",
         "type": "function"
      },
      {
         "inputs": [
            {
               "internalType": "uint256",
               "name": "_amount",
               "type": "uint256"
            }
         ],
         "name": "withdrawTokens",
         "outputs": [],
         "stateMutability": "nonpayable",
         "type": "function"
      }
   ],
   "bytecode": "0x60806040523480156200001157600080fd5b5060405162000f8a38038062000f8a833981810160405281019062000037919062000280565b33600073ffffffffffffffffffffffffffffffffffffffff168173ffffffffffffffffffffffffffffffffffffffff1603620000ad5760006040517f1e4fbdf7000000000000000000000000000000000000000000000000000000008152600401620000a49190620002ed565b60405180910390fd5b620000be816200011760201b60201c565b5082600160006101000a81548173ffffffffffffffffffffffffffffffffffffffff021916908373ffffffffffffffffffffffffffffffffffffffff16021790555081600281905550806003819055505050506200030a565b60008060009054906101000a900473ffffffffffffffffffffffffffffffffffffffff169050816000806101000a81548173ffffffffffffffffffffffffffffffffffffffff021916908373ffffffffffffffffffffffffffffffffffffffff1602179055508173ffffffffffffffffffffffffffffffffffffffff168173ffffffffffffffffffffffffffffffffffffffff167f8be0079c531659141344cd1fd0a4f28419497f9722a3daafe3b4186f6b6457e060405160405180910390a35050565b600080fd5b600073ffffffffffffffffffffffffffffffffffffffff82169050919050565b60006200020d82620001e0565b9050919050565b6200021f8162000200565b81146200022b57600080fd5b50565b6000815190506200023f8162000214565b92915050565b6000819050919050565b6200025a8162000245565b81146200026657600080fd5b50565b6000815190506200027a816200024f565b92915050565b6000806000606084860312156200029c576200029b620001db565b5b6000620002ac868287016200022e565b9350506020620002bf8682870162000269565b9250506040620002d28682870162000269565b9150509250925092565b620002e78162000200565b82525050565b6000602082019050620003046000830184620002dc565b92915050565b610c70806200031a6000396000f3fe608060405234801561001057600080fd5b50600436106100b45760003560e01c80638da5cb5b116100715780638da5cb5b14610155578063b1c7ef0c14610173578063dd49756e1461018f578063f2d57adf146101ab578063f2fde38b146101c7578063fc0c546a146101e3576100b4565b8063013eba92146100b95780630b433a12146100e9578063315a095d1461010757806348c54b9d14610123578063715018a61461012d578063830953ab14610137575b600080fd5b6100d360048036038101906100ce91906108cb565b610201565b6040516100e09190610911565b60405180910390f35b6100f1610219565b6040516100fe9190610911565b60405180910390f35b610121600480360381019061011c9190610958565b61021f565b005b61012b610310565b005b610135610516565b005b61013f61052a565b60405161014c9190610911565b60405180910390f35b61015d610530565b60405161016a9190610994565b60405180910390f35b61018d60048036038101906101889190610958565b610559565b005b6101a960048036038101906101a49190610958565b61056b565b005b6101c560048036038101906101c09190610958565b610657565b005b6101e160048036038101906101dc91906108cb565b610669565b005b6101eb6106ef565b6040516101f89190610a0e565b60405180910390f35b60046020528060005260406000206000915090505481565b60035481565b610227610715565b600160009054906101000a900473ffffffffffffffffffffffffffffffffffffffff1673ffffffffffffffffffffffffffffffffffffffff1663a9059cbb61026d610530565b836040518363ffffffff1660e01b815260040161028b929190610a29565b6020604051808303816000875af11580156102aa573d6000803e3d6000fd5b505050506040513d601f19601f820116820180604052508101906102ce9190610a8a565b61030d576040517f08c379a000000000000000000000000000000000000000000000000000000000815260040161030490610b14565b60405180910390fd5b50565b600354600460003373ffffffffffffffffffffffffffffffffffffffff1673ffffffffffffffffffffffffffffffffffffffff168152602001908152602001600020544261035e9190610b63565b101561039f576040517f08c379a000000000000000000000000000000000000000000000000000000000815260040161039690610be3565b60405180910390fd5b42600460003373ffffffffffffffffffffffffffffffffffffffff1673ffffffffffffffffffffffffffffffffffffffff16815260200190815260200160002081905550600160009054906101000a900473ffffffffffffffffffffffffffffffffffffffff1673ffffffffffffffffffffffffffffffffffffffff1663a9059cbb336002546040518363ffffffff1660e01b8152600401610442929190610a29565b6020604051808303816000875af1158015610461573d6000803e3d6000fd5b505050506040513d601f19601f820116820180604052508101906104859190610a8a565b6104c4576040517f08c379a00000000000000000000000000000000000000000000000000000000081526004016104bb90610b14565b60405180910390fd5b3373ffffffffffffffffffffffffffffffffffffffff167f896e034966eaaf1adc54acc0f257056febbd300c9e47182cf761982cf1f5e43060025460405161050c9190610911565b60405180910390a2565b61051e610715565b610528600061079c565b565b60025481565b60008060009054906101000a900473ffffffffffffffffffffffffffffffffffffffff16905090565b610561610715565b8060028190555050565b610573610715565b600160009054906101000a900473ffffffffffffffffffffffffffffffffffffffff1673ffffffffffffffffffffffffffffffffffffffff166323b872dd3330846040518463ffffffff1660e01b81526004016105d293929190610c03565b6020604051808303816000875af11580156105f1573d6000803e3d6000fd5b505050506040513d601f19601f820116820180604052508101906106159190610a8a565b610654576040517f08c379a000000000000000000000000000000000000000000000000000000000815260040161064b90610b14565b60405180910390fd5b50565b61065f610715565b8060038190555050565b610671610715565b600073ffffffffffffffffffffffffffffffffffffffff168173ffffffffffffffffffffffffffffffffffffffff16036106e35760006040517f1e4fbdf70000000000000000000000000000000000000000000000000000000081526004016106da9190610994565b60405180910390fd5b6106ec8161079c565b50565b600160009054906101000a900473ffffffffffffffffffffffffffffffffffffffff1681565b61071d610860565b73ffffffffffffffffffffffffffffffffffffffff1661073b610530565b73ffffffffffffffffffffffffffffffffffffffff161461079a5761075e610860565b6040517f118cdaa70000000000000000000000000000000000000000000000000000000081526004016107919190610994565b60405180910390fd5b565b60008060009054906101000a900473ffffffffffffffffffffffffffffffffffffffff169050816000806101000a81548173ffffffffffffffffffffffffffffffffffffffff021916908373ffffffffffffffffffffffffffffffffffffffff1602179055508173ffffffffffffffffffffffffffffffffffffffff168173ffffffffffffffffffffffffffffffffffffffff167f8be0079c531659141344cd1fd0a4f28419497f9722a3daafe3b4186f6b6457e060405160405180910390a35050565b600033905090565b600080fd5b600073ffffffffffffffffffffffffffffffffffffffff82169050919050565b60006108988261086d565b9050919050565b6108a88161088d565b81146108b357600080fd5b50565b6000813590506108c58161089f565b92915050565b6000602082840312156108e1576108e0610868565b5b60006108ef848285016108b6565b91505092915050565b6000819050919050565b61090b816108f8565b82525050565b60006020820190506109266000830184610902565b92915050565b610935816108f8565b811461094057600080fd5b50565b6000813590506109528161092c565b92915050565b60006020828403121561096e5761096d610868565b5b600061097c84828501610943565b91505092915050565b61098e8161088d565b82525050565b60006020820190506109a96000830184610985565b92915050565b6000819050919050565b60006109d46109cf6109ca8461086d565b6109af565b61086d565b9050919050565b60006109e6826109b9565b9050919050565b60006109f8826109db565b9050919050565b610a08816109ed565b82525050565b6000602082019050610a2360008301846109ff565b92915050565b6000604082019050610a3e6000830185610985565b610a4b6020830184610902565b9392505050565b60008115159050919050565b610a6781610a52565b8114610a7257600080fd5b50565b600081519050610a8481610a5e565b92915050565b600060208284031215610aa057610a9f610868565b5b6000610aae84828501610a75565b91505092915050565b600082825260208201905092915050565b7f546f6b656e207472616e73666572206661696c65640000000000000000000000600082015250565b6000610afe601583610ab7565b9150610b0982610ac8565b602082019050919050565b60006020820190508181036000830152610b2d81610af1565b9050919050565b7f4e487b7100000000000000000000000000000000000000000000000000000000600052601160045260246000fd5b6000610b6e826108f8565b9150610b79836108f8565b9250828203905081811115610b9157610b90610b34565b5b92915050565b7f436c61696d20696e74657276616c20686173206e6f7420706173736564000000600082015250565b6000610bcd601d83610ab7565b9150610bd882610b97565b602082019050919050565b60006020820190508181036000830152610bfc81610bc0565b9050919050565b6000606082019050610c186000830186610985565b610c256020830185610985565b610c326040830184610902565b94935050505056fea2646970667358221220aeb175cd2a33c985bced7022373cbef8e4996d0ac2653abe7b9624770b98e3c564736f6c63430008180033",
   "linkReferences": {},
   "deployedLinkReferences": {}
}